S00E00007461736B33432E73726563ED
S11300000C9434000C943E000C943E000C943E007E
S11300100C943E000C943E000C943E000C943E0064
S11300200C943E000C943E000C943E000C943E0054
S11300300C943E000C943E000C943E000C943E0044
S11300400C943E000C943E000C943E000C943E0034
S11300500C943E000C943E000C943E000C943E0024
S11300600C943E000C943E0011241FBECFEFD8E048
S1130070DEBFCDBF0E9440000C9455000C940000DC
S113008080E284B98DE085BD16BC83EF87BD8FEF18
S1130090A89B09C085B9E3E2F4EF3197F1F700C0FA
S11100A0000016BCF5CF15B8F3CFF894FFCFCF
S9030000FC
