:100000000C9434000C944B000C9449000C9449005F
:100010000C9449000C9449000C9449000C9449003C
:100020000C9449000C9449000C9449000C9449002C
:100030000C9449000C9449000C9449000C9449001C
:100040000C9449000C9449000C9449000C9449000C
:100050000C9449000C9449000C9449000C944900FC
:100060000C9449000C94490011241FBECFEFD8E036
:10007000DEBFCDBF11E0A0E0B1E0E0E1F1E002C001
:1000800005900D92A230B107D9F70E946A000C9436
:1000900086000C9400001F920F920FB60F9211244D
:1000A0008F939F938091000190910101019729F412
:1000B000109201011092000106C081E090E090933F
:1000C0000101809300019F918F910F900FBE0F90BF
:1000D0001F9018958FEF8AB987B988B985E085BDDB
:1000E00083E884BD83E08093690081E08DBB8CBB95
:1000F000789431E022E38091000190910101019711
:1001000019F438B927BDF7CF18B8F5CFF894FFCF59
:020110000100EC
:00000001FF
