:100000000C9434000C943E000C943E000C943E0082
:100010000C943E000C943E000C943E000C943E0068
:100020000C943E000C943E000C943E000C943E0058
:100030000C943E000C943E000C943E000C943E0048
:100040000C943E000C943E000C943E000C943E0038
:100050000C943E000C943E000C943E000C943E0028
:100060000C943E000C943E0011241FBECFEFD8E04C
:10007000DEBFCDBF0E9440000C9466000C940000CF
:100080008FEF8AB983E085BD83E884BD80E090E08E
:100090005FE04EE120E030E057BD6FE37DE0E3E05C
:1000A00061507040E040E1F700C0000047BD6FE3E1
:1000B0007DE0E3E061507040E040E1F700C0000007
:1000C00001968A30910544F3C901E6CFF894FFCF39
:00000001FF
