:100000000C9434000C943E000C943E000C943E0082
:100010000C943E000C943E000C943E000C943E0068
:100020000C943E000C943E000C943E000C943E0058
:100030000C943E000C943E000C943E000C943E0048
:100040000C943E000C943E000C943E000C943E0038
:100050000C943E000C943E000C943E000C943E0028
:100060000C943E000C943E0011241FBECFEFD8E04C
:10007000DEBFCDBF0E9440000C9460000C940000D5
:1000800080E284B98DE08093810010928500109207
:10009000840083EF90E090938900809388008FEF35
:1000A000E4E8F0E0B09B0AC085B9A3E2B4EF119791
:1000B000F1F700C0000011821082F4CF15B8F2CF22
:0400C000F894FFCFE2
:00000001FF
