S00E00007461736B35432E73726563EB
S11300000C9434000C943E000C943E000C943E007E
S11300100C943E000C943E000C943E000C943E0064
S11300200C943E000C943E000C943E000C943E0054
S11300300C943E000C943E000C943E000C943E0044
S11300400C943E000C943E000C943E000C943E0034
S11300500C943E000C943E000C943E000C943E0024
S11300600C943E000C943E0011241FBECFEFD8E048
S1130070DEBFCDBF0E9440000C944A000C940000E7
S11300808FEF84B983E08093690081E08DBB8CBBE2
S10B00907894FFCFF894FFCF30
S9030000FC
