S0120000444134537465707065722E7372656376
S11300000C9434000C943E000C943E000C943E007E
S11300100C943E000C943E000C943E000C943E0064
S11300200C943E000C943E000C943E000C943E0054
S11300300C943E000C943E000C943E000C943E0044
S11300400C943E000C943E000C943E000C943E0034
S11300500C943E000C943E000C943E000C943E0024
S11300600C943E000C943E0011241FBECFEFD8E048
S1130070DEBFCDBF0E9440000C9477000C940000BA
S11300808FEF87B980E090E06CE05AE041E020E037
S113009030E068B97FEFE9E6F8E17150E040F04004
S11300A0E1F700C0000058B97FEFE9E6F8E17150CC
S11300B0E040F040E1F700C0000018B87FEFE9E647
S11300C0F8E17150E040F040E1F700C0000048B9A9
S11300D07FEFE9E6F8E17150E040F040E1F700C05D
S11300E00000019685309105A4F2C901D2CFF8949D
S10500F0FFCF3C
S9030000FC
