S00E00007461736B32432E73726563EE
S11300000C9434000C943E000C943E000C943E007E
S11300100C943E000C943E000C943E000C943E0064
S11300200C943E000C943E000C943E000C943E0054
S11300300C943E000C943E000C943E000C943E0044
S11300400C943E000C943E000C943E000C943E0034
S11300500C943E000C943E000C943E000C943E0024
S11300600C943E000C943E0011241FBECFEFD8E048
S1130070DEBFCDBF0E9440000C944F000C940000E2
S11300801AB88FEF84B9489B08C0299A83E294EF89
S11300900197F1F700C00000F6CF2998F4CFF89447
S10500A0FFCF8C
S9030000FC
