:100000000C9434000C943E000C943E000C943E0082
:100010000C943E000C943E000C943E000C943E0068
:100020000C943E000C943E000C943E000C943E0058
:100030000C943E000C943E000C943E000C943E0048
:100040000C9440000C943E000C943E000C943E0036
:100050000C943E000C943E000C943E000C943E0028
:100060000C943E000C943E0011241FBECFEFD8E04C
:10007000DEBFCDBF0E9451000C945C000C940000C8
:100080001F920F920FB60F9211248F9385B1809516
:1000900085B98CE086BD8F910F900FBE0F901F9099
:1000A00018958FEF84B981E080936E0085E085BD5F
:0C00B0008CE086BD7894FFCFF894FFCF61
:00000001FF
