S012000047636341737369676E312E737265636F
S11300000C9434000C943E000C943E000C943E007E
S11300100C943E000C943E000C943E000C943E0064
S11300200C943E000C943E000C943E000C943E0054
S11300300C943E000C943E000C943E000C943E0044
S11300400C943E000C943E000C943E000C943E0034
S11300500C943E000C943E000C943E000C943E0024
S11300600C943E000C943E0011241FBECFEFD8E048
S1130070DEBFCDBF0E9440000C945E000C940000D3
S1130080CF93DF93E2E2F2E0C0E0D6E0A0E0B4E098
S1130090CF019927819391932E2F2250253018F464
S11300A08D939D9302C089939993EA3784E0F8076E
S11300B079F780E090E0DF91CF910895F894FFCF35
S9030000FC
