S01000004D69647465726D312E7372656311
S11300000C9434000C9451000C9451000C94510045
S11300100C9451000C9451000C9451000C94510018
S11300200C9451000C9451000C9451000C94510008
S11300300C9451000C947A010C9451000C945100CE
S11300400C9451000C9451000C9451000C945100E8
S11300500C9451000C9451000C9451000C945100D8
S11300600C9451000C94510011241FBECFEFD8E022
S1130070DEBFCDBF11E0A0E0B1E0E0E5F9E002C0F1
S113008005900D92AE3EB107D9F722E0AEEEB1E095
S113009001C01D92A430B207E1F70E94E8000C945D
S11300A0A6040C940000E0ECF0E0908195FFFDCFF5
S11300B08093C60008951F93CF93DF93EC0188814A
S11300C0882351F010E00E9453001F5FFE01E10FEE
S11300D0F11D80818111F7CFDF91CF911F91089598
S11300E082E480937C0085E880937A00EFE6F0E078
S11300F0808181608083E1E8F0E080818560808395
S113010087EF92EC90938500809384000895109279
S113011003021092020244E0EAE7F0E0A8E7B0E04C
S1130120808180648083808186FDFDCF8D919C9148
S113013011972091020230910302820F931F909332
S11301400302809302022FEF80E792E02150804067
S11301509040E1F700C00000415011F78091020285
S11301609091030296958795969587959695879590
S11301709093030280930202809102029091030201
S11301809695879590930302809302020895909325
S1130190C5008093C40088E08093C10086E080930A
S11301A0C2000895CF93DF93FC012081222369F0DC
S11301B0DC011196E0ECF0E0C6ECD0E0808185FF34
S11301C0FDCF28832D912111F9CFDF91CF9108958F
S11301D0CF93DF93CDB7DEB7CB5DD1090FB6F894DB
S11301E0DEBF0FBECDBF85E0EDE0F1E0DE0111968C
S11301F001900D928A95E1F78EE0E2E1F1E0DE01F3
S1130200169601900D928A95E1F78EE2E0E2F1E014
S1130210DE01549601900D928A95E1F786E5EEE4AD
S1130220F1E0DE01AE5BBF4F01900D928A95E1F7DC
S113023084E4E4EAF1E0DE01A856BF4F01900D9298
S11302408A95E1F787E690E00E94C70080E091E09C
S11302500E94D2002FE78AE196E02150804090402E
S1130260E1F700C000002FEF83EC99E021508040BB
S11302709040E1F700C00000CE0101960E945B00AF
S11302802FEF87EA91E6215080409040E1F700C0CB
S11302900000CE0106960E945B002FEF87EA91E6EC
S11302A0215080409040E1F700C00000CE01449608
S11302B00E945B002FEF87EA91E621508040904036
S11302C0E1F700C00000CE018E5B9F4F0E945B00EF
S11302D02FEF87EA91E6215080409040E1F700C07B
S11302E00000CE0188569F4F0E945B000E94700060
S11302F07894FFCF1F920F920FB60F9211242F9371
S11303003F934F935F936F937F938F939F93AF9399
S1130310BF93EF93FF930E94870080910202909114
S113032003029F938F9388EE91E09F938F931F9284
S113033084E18F938EEE91E09F938F930E94C3018B
S11303408EEE91E00E94D20087EF92EC90938500AC
S1130350809384008DB79EB708960FB6F8949EBF1D
S11303600FBE8DBFFF91EF91BF91AF919F918F9180
S11303707F916F915F914F913F912F910F900FBE9D
S11303800F901F901895AEE0B0E0E9ECF1E00C940A
S11303907D040D891E898F89988D26E02C831A830C
S11303A0098397FF02C080E090E801979E838D83C4
S11303B0CE014B96AC01698D7A8DCE0101960E94D7
S11303C0F3014D815E8157FD0AC02F8138854217A4
S11303D053070CF49A01F801E20FF31F10822E96D2
S11303E0E4E00C949904ACE0B0E0E9EFF1E00C94A3
S11303F06F047C016B018A01FC01178216828381E0
S113040081FFC6C188248394912C8C0E9D1EF70114
S11304109381F60193FD859193FF81916F01882368
S113042009F4B2C1853239F493FD859193FF81912A
S11304306F01853229F4B70190E00E94E503E7CF0C
S1130440512C312C20E02032A8F48B3261F028F4B6
S1130450803251F0833271F40BC08D3239F0803325
S113046049F4216028C02260246025C0286023C08C
S1130470206121C027FD27C0382F30533A3078F44B
S113048026FF06C0FAE05F9E300D1124532E13C0E0
S11304908AE0389E300D1124332E20620CC08E3237
S11304A021F426FD71C1206406C08C3611F4206845
S11304B002C0883641F4F60193FD859193FF819142
S11304C06F018111C0CF982F9554933018F090523A
S11304D0933028F40C5F1F4FFFE3F9830DC083367C
S11304E031F0833771F0833509F05EC023C0F80121
S11304F0808189830E5F1F4F44244394512C5401FF
S113050015C03801F2E06F0E711CF801A080B180B3
S113051026FF03C0652D70E002C06FEF7FEFC501B9
S11305202C870E94DA032C0183012C856FE7262E89
S1130530222218C03801F2E06F0E711CF801A0806D
S1130540B18026FF03C0652D70E002C06FEF7FEF1E
S1130550C5012C870E94CF032C012C8550E8252E41
S1130560222A830123FC1CC006C0B70180E290E06C
S11305700E94E5033A94832D90E048165906A8F3A7
S11305800FC0F50127FC859127FE81915F01B7011A
S113059090E00E94E50331103A94F1E04F1A5108BB
S11305A04114510471F7EDC0843611F0893641F5D8
S11305B0F80127FF07C060817181828193810C5FFC
S11305C01F4F08C060817181882777FD8095982F1F
S11305D00E5F1F4F4FE6B42EB22297FF09C09095CD
S11305E08095709561957F4F8F4F9F4FF0E8BF2A9C
S11305F02AE030E0A4010E941104A82EA81843C0E8
S1130600853731F43FEEB32EB2222AE030E024C025
S113061099EFB92EB2228F36B9F020F4883509F05B
S1130620B3C00DC0803721F0883709F0ADC002C0D7
S113063020E1B22AB4FE0BC084E0B82A08C024FF2B
S113064009C0E6E0BE2A06C028E030E005C020E18B
S113065030E002C020E132E0F801B7FE07C060815B
S11306607181828193810C5F1F4F06C0608171810B
S113067080E090E00E5F1F4FA4010E941104A82E99
S1130680A818FFE7BF22B6FE0BC02B2D2E7FA514A2
S113069050F4B4FE0AC0B2FC08C02B2D2E7E05C057
S11306A07A2C2B2D03C07A2C01C0752C24FF0DC08D
S11306B0FE01EA0DF11D8081803311F4297E09C009
S11306C022FF06C07394739404C0822F867809F0C5
S11306D0739423FD14C020FF0FC05A2C731460F4CC
S11306E0530C5718732C08C0B70180E290E02C8794
S11306F00E94E50373942C857314B0F304C073143F
S113070010F4371801C0312C24FF12C0B70180E364
S113071090E02C870E94E5032C8522FF1EC021FF58
S113072003C088E590E002C088E790E0B7010CC000
S1130730822F867891F021FD02C080E201C08BE215
S113074027FD8DE2B70190E00E94E50306C0B701E2
S113075080E390E00E94E5035A94A514C0F3AA94A0
S1130760F401EA0DF11DB701808190E00E94E503D8
S1130770A110F5CF06C0B70180E290E00E94E50326
S11307803A943110F8CF43CEF7012681378102C065
S11307902FEF3FEFC9012C96E2E10C948B04FC018E
S11307A00590615070400110D8F7809590958E0F98
S11307B09F1F0895FC016150704001900110D8F70B
S11307C0809590958E0F9F1F08950F931F93CF933D
S11307D0DF938C01EB018B8181FD03C00FEF1FEFD1
S11307E01AC082FF0DC02E813F818C819D81281704
S11307F0390764F4E881F9810193F983E88306C039
S1130800E885F985802F0995892B41F78E819F8191
S113081001969F838E83C801DF91CF911F910F9121
S11308200895FA01AA27283051F1203181F1E89482
S11308306F936E7F6E5F7F4F8F4F9F4FAF4FB1E0CF
S11308403ED0B4E03CD0670F781F891F9A1FA11DCA
S1130850680F791F8A1F911DA11D6A0F711D811DCB
S1130860911DA11D20D009F468943F912AE0269F90
S113087011243019305D3193DEF6CF010895462FEF
S11308804770405D4193B3E00FD0C9F7F6CF462FD0
S11308904F70405D4A3318F0495D31FD4052419339
S11308A002D0A9F7EACFB4E0A695979587957795F6
S11308B06795BA95C9F700976105710508959B017D
S11308C0AC010A2E06945795479537952795BA9506
S11308D0C9F7620F731F841F951FA01D08952F92DF
S11308E03F924F925F926F927F928F929F92AF92BC
S11308F0BF92CF92DF92EF92FF920F931F93CF9309
S1130900DF93CDB7DEB7CA1BDB0B0FB6F894DEBF9F
S11309100FBECDBF09942A88398848885F846E84C5
S11309207D848C849B84AA84B984C884DF80EE800F
S1130930FD800C811B81AA81B981CE0FD11D0FB618
S1130940F894DEBF0FBECDBFED010895F894FFCF3C
S1130950436F6E6E6563746564210D0A0041540D26
S11309600A0041542B4349504D55583D310D0A005E
S113097041542B43495053544152543D302C22543A
S11309804350222C226170692E7468696E677370FB
S113099065616B2E636F6D222C38300D0A0047455C
S11309A0542068747470733A2F2F6170692E7468C0
S11309B0696E67737065616B2E636F6D2F61707004
S11309C0732F7468696E67687474702F73656E64CE
S11309D05F726571756573743F6170695F6B65798A
S11309E03D534259585558444338544C4D41353081
S11309F0560D0A004745542068747470733A2F2FBB
S1130A006170692E7468696E67737065616B2E63BB
S1130A106F6D2F7570646174653F6170695F6B659C
S1130A20793D524C49424836363850344D5A545226
S1110A3042363D35300D0A002533640D0A00B0
S9030000FC
